:100000000C9435000C945D000C945D000C945D0024
:100010000C945D000C945D000C945D000C945D00EC
:100020000C945D000C945D000C945D000C945D00DC
:100030000C945D000C945D000C945D000C945D00CC
:100040000C94D4010C945D000C9444020C941E0298
:100050000C945D000C945D000C945D000C945D00AC
:100060000C945D000C945D00F60311241FBECFEFCD
:10007000D8E0DEBFCDBF21E0A8E2B1E001C01D9213
:10008000A23DB207E1F711E0A0E0B1E0EAEBFCE04D
:1000900002C005900D92A832B107D9F710E0C5E370
:1000A000D0E004C02197FE010E945A04C433D10756
:1000B000C9F70E9476020C945B060C940000AF9284
:1000C000BF92CF92DF92EF92FF920F931F93CF9345
:1000D000DF936C017B018B01040F151FEB015E01A7
:1000E000AE18BF08C017D10759F06991D601ED913C
:1000F000FC910190F081E02DC6010995892B79F7DB
:10010000C501DF91CF911F910F91FF90EF90DF908C
:10011000CF90BF90AF900895FC01538D448D252F53
:1001200030E0842F90E0821B930B541710F0CF9691
:10013000089501970895FC01918D828D981761F0C3
:10014000A28DAE0FBF2FB11D5D968C91928D9F5FDA
:100150009F73928F90E008958FEF9FEF08952FB7D0
:10016000F89480912D0190912E01A0912F01B091D2
:1001700030012FBF8093390190933A01A0933B0146
:10018000B0933C0181E391E00E949B0097FF26C061
:100190002FB7F89480912D0190912E01A0912F01FD
:1001A000B09130012FBF4091390150913A016091D7
:1001B0003B0170913C01841B950BA60BB70B409142
:1001C00035015091360160913701709138018417E3
:1001D0009507A607B707B0F28FEF9FEF0895FC01D0
:1001E000918D828D981731F0828DE80FF11D858DEC
:1001F00090E008958FEF9FEF0895FC01918D228D7F
:10020000892F90E0805C9F4F821B91098F73992703
:10021000089581E391E00E94FD0021E0892B09F41B
:1002200020E0822F089580E090E0892B29F00E9441
:10023000090181110C9400000895FC01A48DA80F00
:10024000B92FB11DA35ABF4F2C91848D90E0019618
:100250008F739927848FA689B7892C93A089B18938
:100260008C91837080648C93938D848D981306C0D9
:100270000288F389E02D80818F7D80830895EF923D
:10028000FF920F931F93CF93DF93EC0181E0888F50
:100290009B8D8C8D98131AC0E889F989808185FF20
:1002A00015C09FB7F894EE89FF896083E889F989C2
:1002B00080818370806480839FBF81E090E0DF91C4
:1002C000CF911F910F91FF90EF900895F62E0B8D17
:1002D00010E00F5F1F4F0F731127E02E8C8D8E11D2
:1002E0000CC00FB607FCFACFE889F989808185FF39
:1002F000F5CFCE010E941D01F1CFEB8DEC0FFD2F4C
:10030000F11DE35AFF4FF0829FB7F8940B8FEA89F3
:10031000FB8980818062CFCFCF93DF93EC01888D02
:100320008823B9F0AA89BB89E889F9898C9185FD70
:1003300003C0808186FD0DC00FB607FCF7CF8C91FE
:1003400085FFF2CF808185FFEDCFCE010E941D0198
:10035000E9CFDF91CF9108950F931F93CF93DF9350
:10036000EC0188819981009759F02A813B812617F9
:10037000370730F081E0DF91CF911F910F91089501
:100380008B016F5F7F4F0E948505009759F099831D
:1003900088831B830A832C813D81232B59F7FC0121
:1003A0001082E8CF80E0E7CF1F920F920FB60F9236
:1003B00011242F933F938F939F93AF93BF9380917B
:1003C0002D0190912E01A0912F01B091300130911B
:1003D0002C0123E0230F2D3758F50196A11DB11DE7
:1003E00020932C0180932D0190932E01A0932F0137
:1003F000B09330018091280190912901A0912A01A8
:10040000B0912B010196A11DB11D809328019093FD
:100410002901A0932A01B0932B01BF91AF919F9125
:100420008F913F912F910F900FBE0F901F901895B5
:1004300026E8230F0296A11DB11DD2CF1F920F9265
:100440000FB60F9211242F933F934F935F936F93A7
:100450007F938F939F93AF93BF93EF93FF9381E32A
:1004600091E00E941D01FF91EF91BF91AF919F918B
:100470008F917F916F915F914F913F912F910F904D
:100480000FBE0F901F9018951F920F920FB60F92EC
:1004900011242F938F939F93EF93FF93E09141014A
:1004A000F09142018081E0914701F091480182FD85
:1004B0001BC0908180914A018F5F8F7320914B0107
:1004C000821741F0E0914A01F0E0EF5CFE4F958F1A
:1004D00080934A01FF91EF919F918F912F910F90FF
:1004E0000FBE0F901F9018958081F4CFCF93DF93AC
:1004F000CDB7DEB72C970FB6F894DEBF0FBECDBFD9
:10050000789484B5826084BD84B5816084BD85B5EE
:10051000826085BD85B5816085BD80916E008160FA
:1005200080936E00109281008091810082608093A0
:1005300081008091810081608093810080918000A2
:100540008160809380008091B10084608093B100CD
:100550008091B00081608093B00080917A008460C7
:1005600080937A0080917A00826080937A008091F3
:100570007A00816080937A0080917A00806880930D
:100580007A001092C100E0914101F091420182E0B5
:100590008083E0913D01F0913E011082E0913F01A6
:1005A000F091400180E1808310924901E091450182
:1005B000F091460186E08083E0914301F09144018F
:1005C000808180618083E0914301F09144018081CA
:1005D00088608083E0914301F091440180818068CC
:1005E0008083E0914301F091440180818F7D80837D
:1005F00080E0E82E80E0F82E81E391E00E94FD008B
:10060000892B09F4D0C018861F821A8619861C8689
:100610001B8670E060E0CE0107960E94AC012F813E
:10062000388581112EC02115310519F0C9010E94AC
:10063000FC0418861F821C861B861A8619860E9457
:10064000AF0097FD26C08A30910519F189831A827F
:100650000B851C850F5F1F4FB801CE0107960E94C6
:10066000AC01882361F32F8138858B859C85BE0181
:100670006F5F7F4F820F931F0E9454061C870B876A
:10068000DECF1C861B8661E271E0C9010E94540620
:10069000D6CF1A8219821C821B821E821D8266E0BE
:1006A00070E0CE0101960E94AC0129813A8181114E
:1006B00086C02115310519F0C9010E94FC041A8277
:1006C00019821E821D821C821B82CF80D884C11495
:1006D000D10409F47EC00B851C8501151105B9F004
:1006E0008D819E81080F191FB801CE0101960E94CD
:1006F000AC01882309F46DC029813A818D819E81E6
:10070000B601820F931F0E9454061E830D834D81F4
:100710005E8169817A8181E391E00E945F0042E01D
:1007200050E06FE171E081E391E00E945F00898118
:100730009A81009711F00E94FC048B859C85892B7F
:1007400061F162E271E08F8198850E944B06892BEE
:1007500021F581E391E00E948C01E0914301F09149
:10076000440180818F7E8083E0914301F0914401B8
:100770008081877F8083E0914301F09144018081F3
:100780008F778083E0914301F091440180818F7DD8
:10079000808380914B0180934A018F8198850097D7
:1007A00011F00E94FC04E114F10409F425CF0E9429
:1007B0000901882309F420CF0E9400001DCF86E0A4
:1007C00090E09E838D8368E171E0C9010E94540628
:1007D0007CCF89819A81009711F00E94FC041A82D3
:1007E00019821E821D821C821B8291CFE1E3F1E0FF
:1007F0001382128288EE93E0A0E0B0E084839583B8
:10080000A683B7838AE091E09183808385EC90E0B2
:100810009587848784EC90E09787868780EC90E0CA
:10082000918B808B81EC90E0938B828B82EC90E0BB
:10083000958B848B86EC90E0978B868B118E128E35
:10084000138E148E08952F923F924F925F926F9263
:100850007F928F929F92AF92BF92CF92DF92EF9250
:10086000FF920F931F93CF93DF93CDB7DEB7CA1BD1
:10087000DB0B0FB6F894DEBF0FBECDBF09942A88FC
:10088000398848885F846E847D848C849B84AA84A4
:10089000B984C884DF80EE80FD800C811B81AA8131
:1008A000B981CE0FD11D0FB6F894DEBF0FBECDBFFC
:1008B000ED010895EE0FFF1F0590F491E02D0994CE
:1008C0000F931F93CF93DF938230910510F482E052
:1008D00090E0E091D001F091D10130E020E0B0E073
:1008E000A0E0309799F42115310509F44AC0281B7E
:1008F000390B24303105D8F58A819B81611571054A
:1009000089F1FB0193838283FE0111C040815181F3
:100910000281138148175907E0F04817590799F4E5
:10092000109761F012960C93129713961C933296BF
:10093000CF01DF91CF911F910F9108950093D001C6
:100940001093D101F4CF2115310551F0421753070F
:1009500038F0A901DB019A01BD01DF01F801C1CF27
:10096000EF01F9CF9093D1018093D001CDCFFE015B
:10097000E20FF31F81939193225031093983288329
:10098000D7CF2091CE013091CF01232B41F420917C
:100990000201309103013093CF012093CE012091C9
:1009A0000001309101012115310541F42DB73EB709
:1009B0004091040150910501241B350BE091CE01BB
:1009C000F091CF01E217F307A0F42E1B3F0B28177D
:1009D000390778F0AC014E5F5F4F2417350748F0B8
:1009E0004E0F5F1F5093CF014093CE01819391939F
:1009F0009FCFF0E0E0E09CCFCF93DF930097E9F04A
:100A0000FC01329713821282A091D001B091D101E2
:100A1000ED0130E020E01097A1F420813181820FB8
:100A2000931F2091CE013091CF012817390709F08B
:100A300061C0F093CF01E093CE01DF91CF91089593
:100A4000EA01CE17DF07E8F54A815B819E01411577
:100A50005105B1F7E901FB83EA8349915991C40F2C
:100A6000D51FEC17FD0761F4808191810296840FF8
:100A7000951FE90199838883828193819B838A836F
:100A8000F0E0E0E012968D919C9113970097B9F5F4
:100A90002D913C911197CD010296820F931F2091C9
:100AA000CE013091CF012817390739F6309751F52B
:100AB0001092D1011092D001B093CF01A093CE013A
:100AC000BCCFD383C28340815181840F951FC81747
:100AD000D90761F44E5F5F4F88819981480F591F94
:100AE000518340838A819B819383828321153105C1
:100AF00009F0B0CFF093D101E093D0019ECFFD017A
:100B0000DC01C0CF13821282D7CFB0E0A0E0EBE8C7
:100B1000F5E00C9425048C01009751F4CB010E9460
:100B200060048C01C801CDB7DEB7E0E10C9441044C
:100B3000FC01E60FF71F9C0122503109E217F30771
:100B400008F49DC0D901CD91DC911197C617D70744
:100B500098F0C530D10530F3CE010497861797077A
:100B600008F3C61BD70B2297C193D1936D937C9347
:100B7000CF010E94FC04D6CF5B01AC1ABD0A4C0128
:100B80008C0E9D1EA091D001B091D101512C412C11
:100B9000F12CE12C109731F58091CE019091CF018D
:100BA0008815990509F05CC04616570608F058C02C
:100BB0008091000190910101009741F48DB79EB79B
:100BC0004091040150910501841B950BE817F9072A
:100BD00008F055C0F093CF01E093CE01F901718385
:100BE0006083A0CF8D919C91119712966C90129773
:100BF00013967C901397A815B90559F56C0142E03E
:100C0000C40ED11CCA14DB0420F1AC014A195B09E3
:100C1000DA011296159780F06282738251834083C5
:100C2000D9016D937C93E114F10471F0D70113960F
:100C3000FC93EE93129776CF22968C0F9D1FF901AD
:100C400091838083F301EFCFF093D101E093D00142
:100C500069CF4816590608F42C017D01D3019ACFBB
:100C6000CB010E9460047C01009749F0AE01B801FD
:100C70000E944206C8010E94FC04870153CF10E085
:100C800000E050CFFB01DC0102C001900D92415009
:100C90005040D8F70895FB01DC018D910190801937
:100CA0000110D9F3990B0895FB01DC0101900D921D
:0A0CB0000020E1F70895F894FFCF4B
:100CBA000000D2018000000000003F015F008C00AC
:100CCA008C01FD009B00EF004563686F3A20000D20
:080CDA000A006B696C6C00005C
:00000001FF
